:020000040800F2
:10000000B8060020F55E0008F1030008F3030008BD
:10001000F7030008FB030008FF03000800000000CE
:1000200000000000000000000000000003040008C1
:100030000504000800000000070400080904000887
:100040000F5F00080F5F00080F5F00080F5F0008D8
:100050000F5F00080F5F00080F5F00080F5F0008C8
:100060000F5F00080F5F00080F5F00080F5F0008B8
:100070000F5F00080F5F00080F5F00080F5F0008A8
:100080000F5F00080F5F00080F5F00080F5F000898
:100090000F5F00080F5F00080F5F00080F5F000888
:1000A0000F5F00080F5F00080F5F00080F5F000878
:1000B0000F5F00080F5F00080F5F00080F5F000868
:1000C0000F5F00080F5F00080F5F00080F5F000858
:1000D0000F5F00086D0C00080F5F00080F5F00083D
:1000E0000F5F00080F5F00080F5F00080F5F000838
:1000F0000F5F00080F5F00080F5F00080F5F000828
:100100000F5F00080F5F00080F5F00080F5F000817
:100110000F5F00080F5F00080F5F00088F110008D5
:100120000F5F00080F5F00080F5F00080F5F0008F7
:1001300000F002F800F042F80AA090E8000C8244B7
:100140008344AAF10107DA4501D100F037F8AFF294
:10015000090EBAE80F0013F0010F18BFFB1A43F0A5
:1001600001031847D0A50000F0A50000103A24BFF5
:1001700078C878C1FAD8520724BF30C830C144BF0C
:1001800004680C607047000000230024002500264E
:10019000103A28BF78C1FBD8520728BF30C148BFEA
:1001A0000B607047752908F09980782908F0D28093
:1001B000002070471FB51FBD10B510BD08F024FA10
:1001C0001146FFF7F7FF00F01DF808F042FA03B4FC
:1001D000FFF7F2FF03BC05F07DFE000008B54FF409
:1001E000A06005F0A7FE37208DF8000003208DF8F1
:1001F00001008DF8020001208DF80300684605F02B
:100200009EFE08BD88B00024002002900025002634
:1002100000F0ECF900F0CBFA00F018FC00F04BFC19
:1002200000F07BFB00F0AEFB01220021604807F0EC
:1002300034FF012204215E4807F02FFF04215D48AE
:1002400006F0FBFA02215B4806F0F7FA05F0D8FD4C
:100250004FF4A06005F06EFE4FF4165000F07EFCE7
:1002600001F05BFF4FF478405349088001F080F8BB
:10027000FFF7B4FF00F059FF98E04FF07E514F4870
:10028000006808F029FD47D100F08BFD049000F0D4
:10029000EFFD0390BDF8100040F2E561884230DDCB
:1002A000BDF80C0088422CDDBDF81000BDF80C1024
:1002B000884213DDBDF81000BDF80C10401A1E284E
:1002C0001FDA4FF4C87000F0A4FC4FF4C87000F0BF
:1002D000AFFC4FF4AF7005F0D0FD12E0BDF80C009C
:1002E000BDF81010401A1E280BDA4FF4C87000F049
:1002F000AEFC4FF4C87000F07DFC4FF4AF7005F019
:10030000BCFDBDF8100000F07EFEBDF80C0000F052
:10031000B7FE0A2005F0B1FD00F0FCFDC5B200F00B
:1003200037FEC6B20020244908804FF6FF7001F066
:10033000C2FE0A2005F0A1FD21A018210B46D22201
:10034000CDE9001028211E2005F027FD21A0102155
:100350000B46C822CDE9001046211E2005F01DFDE8
:1003600032461FA105A807F07DFF05A810210B4606
:10037000C822CDE900105A211E2005F00EFD2A46A4
:1003800017A105A807F06EFF05A810210B46C8228B
:10039000CDE9001082211E2005F0FFFC601CC4B2D4
:1003A0000C2C00D100240A2005F067FD65E7000051
:1003B00000040040000C014022000020000000204A
:1003C000576172536869702053544D3332205E5F19
:1003D0005E000000323032302F31322F32310000D7
:1003E00073706565643A2530327520636D2F730034
:1003F000704700BFFEE700BFFEE700BFFEE700BF9B
:10040000FEE7704770477047704700000CB500204A
:10041000019000906C48006840F480306A490860A0
:1004200000BF6948006800F4003000900198401C4B
:100430000190009818B90198B0F5A06FF1D1624809
:10044000006800F4003010B10120009001E00020AD
:1004500000900098012843D15C48006840F01000EB
:100460005A4908600846006820F003000860084602
:10047000006840F0020008605348406852494860F4
:100480000846406848600846406840F4806048601C
:100490000846406820F47C1048600846406840F4F4
:1004A000E81048600846006840F08070086000BFAF
:1004B0004548006800F000700028F9D042484068C4
:1004C00020F00300404948600846406840F00200C0
:1004D000486000BF3C48406800F00C000828F9D193
:1004E0000CBD10B5FFF792FF10BD10B5364800687F
:1004F00040F001003449086008464068344908402B
:100500003149486008460068324908402E49086071
:100510000846006820F4802008600846406820F4FF
:10052000FE0048604FF41F008860FFF7DAFF4FF0CD
:1005300000602949086010BD10B50021002000228C
:10054000214B5B6803F00C0121B1042906D0082976
:1005500028D107E0214B224C236027E01F4B204C81
:10056000236023E0184B5B6803F47010164B5B6844
:1005700003F48032022303EB904022B9194B43432A
:10058000174C23600DE0104B5B6803F4003323B17C
:10059000144B4343124C236003E0104B4343104C75
:1005A000236003E00D4B0E4C236000BF00BF064BE1
:1005B0005B68C3F303130C4CE15C094B1B68CB4035
:1005C000074C236010BD00000010024000200240D4
:1005D0000000FFF8FFFFF6FE08ED00E000127A00D1
:1005E0000800002000093D000C00002000B58DB07F
:1005F0000121442006F02EFB0220ADF8300004203B
:100600008DF8330003208DF832000CA9FE4806F067
:1006100065F80420ADF830008DF8330003208DF824
:1006200032000CA9F84806F059F80121084606F0F6
:100630001EFB09A807F0FCFA0020ADF8260041F6E1
:100640001F40ADF824004FF6FF70ADF8280009A94F
:100650004FF0804006F0C0FF0420ADF818000020E5
:10066000ADF820000220ADF81A000020ADF81E0001
:100670000120ADF81C0006A9800707F040FA082009
:10068000ADF818000020ADF820000220ADF81A00E7
:100690000020ADF81E000120ADF81C0006A980075F
:1006A00007F02DFA0521880707F0B8FD0921880712
:1006B00007F0B4FD00204FF08041888400214FF006
:1006C000804007F0E5FA0121202006F0D0FA09A8C1
:1006D00007F0AEFA4720ADF824000020ADF8260060
:1006E00040F2E730ADF828000020ADF82A0009A953
:1006F000C64806F071FF0121C44807F0A3FD01229E
:100700001146C24807F0DFFA0121C04807F0C0FADD
:100710000121092006F09EFA0121880306F0A7FABC
:100720004FF48050ADF8140010208DF8170003200E
:100730008DF8160005A9B64805F0D0FF4FF480519A
:10074000B34806F078F84FF46040ADF81400182074
:100750008DF8170003208DF8160005A9AC4805F0A8
:10076000BDFF3820ADF80C000020ADF80600ADF854
:1007700008004FF40060ADF804000020ADF8000060
:10078000ADF80E004FF48270ADF802004FF4007027
:10079000ADF80A000720ADF8100069469D4806F044
:1007A000E7FC01219B4806F088FD0DB000BD00B5B7
:1007B00087B00121482006F04DFA4020ADF818001E
:1007C00004208DF81B0003208DF81A0006A990481C
:1007D00005F084FF8020ADF8180004208DF81B0080
:1007E00003208DF81A0006A9894805F077FF02203A
:1007F000ADF8180010208DF81B0003208DF81A00AA
:1008000006A9854805F06AFF0221834806F015F81D
:100810000120ADF8180010208DF81B0003208DF882
:100820001A0006A97C4805F059FF01217A4806F014
:1008300004F80121042006F01AFA03A807F0F8F9D9
:100840000020ADF80E004720ADF80C004FF6FF7009
:10085000ADF8100003A9714806F0BEFE00231A4649
:1008600019466E4807F082FA70216C4807F04AFA80
:1008700006216A4807F08EFC0020ADF80000ADF8B4
:1008800008000220ADF802000020ADF806000120AB
:10089000ADF804006946614807F031F90420ADF86D
:1008A00000000020ADF808000220ADF80200002092
:1008B000ADF806000120ADF804006946574807F07E
:1008C0001EF90321554807F0A9FC0521534807F0FC
:1008D000A5FC002051492431088000214F4807F031
:1008E000D7F907B000BD10B502214B4805F0A3FFB2
:1008F0000F2005F09EFA0221474805F09EFF10BD2B
:1009000010B50121444805F096FF0F2005F091FA3B
:100910000121414805F091FF10BD08B501211020CB
:1009200006F098F90121052006F094F90220ADF8AF
:10093000000003208DF8020048208DF8030069466E
:10094000314805F0CBFE0420ADF8000003208DF8FF
:10095000020048208DF8030069462B4805F0BEFED2
:10096000C020ADF8000010208DF8030003208DF8A2
:10097000020069462A4805F0B1FEC021284805F06A
:100980005CFF08BD00B589B00121052006F062F9C1
:100990004020ADF8200018208DF8230003208DF8AA
:1009A000220008A9184805F099FE0121022006F04E
:1009B0005EF905A807F03CF94720ADF814000020C7
:1009C000ADF8160040F2E730ADF818000020ADF8A1
:1009D0001A0005A9134806F0FFFD0121114807F090
:1009E00057FA6020ADF804003220ADF80A0000206C
:1009F000ADF80C000120ADF8060001A9094806F089
:100A000028FE082107480FE00008014000140040BC
:100A1000000C014000380040001801400008004070
:100A2000001001400004004007F062FA0022032198
:100A3000FE4807F048F90121FC4807F029F9002297
:100A40001146FA4807F029FB09B000BD08B501219D
:100A5000082006F0FFF80121052006F0FBF802202F
:100A6000ADF8000003208DF8020048208DF8030047
:100A70006946EF4805F032FE0420ADF8000003207F
:100A80008DF8020048208DF803006946E84805F01B
:100A900025FE0620ADF8000010208DF8030003208D
:100AA0008DF802006946E34805F018FE0621E1488A
:100AB00005F0C3FE08BD00B589B00121052006F090
:100AC000C9F88020ADF8200018208DF823000320FD
:100AD0008DF8220008A9D64805F000FE0121022069
:100AE00006F0C5F805A807F0A3F84720ADF81400F4
:100AF0000020ADF8160040F2E730ADF818000020F5
:100B0000ADF81A0005A9C94806F066FD0121C748DD
:100B100007F0BEF96020ADF804003220ADF80A00FD
:100B20000020ADF80C000120ADF8060001A9BF4877
:100B300006F0D1FD0821BD4807F0E3F900220321AA
:100B4000BA4807F0C0F80121B84807F0A1F8002220
:100B50000421B64807F0A1FA09B000BD10B586B06F
:100B60000446012144F2040006F074F84FF40070CA
:100B7000ADF8140003208DF8160018208DF817002A
:100B800005A9AB4805F0AAFD4FF48060ADF814004C
:100B900004208DF8170005A9A54805F09FFD252024
:100BA0008DF8000003208DF801008DF8020001206F
:100BB0008DF80300684605F0C2F901940020ADF8F5
:100BC0000800ADF80A00ADF80C00ADF810000C20DC
:100BD000ADF80E0001A9984806F0E3F8012240F2B2
:100BE0002551954806F075F90121934806F065F9FD
:100BF00006B010BD01B54021904805F01EFE8021D1
:100C00008E4805F018FEBDF8000088493431088090
:100C100008BD01B50221874805F00DFE0421854875
:100C200005F00BFEBDF8000080493831088008BD92
:100C300001B54021814805F0FEFD80217F4805F087
:100C4000FCFDBDF8000079493431088008BD01B5CC
:100C50000221784805F0F1FD0421764805F0EBFD0E
:100C6000BDF8000071493831088008BD70B540F208
:100C70002551714806F012FA00287CD040F2255127
:100C80006D4806F035FA6C4806F088F9C4B2214682
:100C9000694806F07FF94FF48071654805F0CBFD97
:100CA00000BF4021644806F0E3F90128F9D164202F
:100CB00005F0E3F84FF480715D4805F0BCFD312C80
:100CC0000FD15F480088032190FBF1F04FF6FF71D0
:100CD00001EA40052846FFF7BAFF59480088FFF7A8
:100CE000A7FF322C0FD156480088FFF7B0FF5448B9
:100CF0000088032190FBF1F04FF6FF7101EA4005F7
:100D00002846FFF795FF332C07D14D480088FFF7A1
:100D10009EFF4B480088FFF78BFF342C07D14848D3
:100D20000088FFF776FF46480088FFF763FF352C01
:100D300012D100204349086004213E4805F07DFDA2
:100D400002213C4805F079FD40213C4805F075FD45
:100D500080213A4805F071FD362C21D139480168CF
:100D6000002007F0B9FF0FD14FF07E5035490860E1
:100D70000846006800E013E007F0E2FF85B229466C
:100D80002D4806F007F90BE000202E4908600846C0
:100D9000006807F0D5FF85B22946274806F0FAF823
:100DA00070BD2DE9FC4100200190009001212648F2
:100DB00006F06EFF0021244807F02EF9FFF793FD9F
:100DC00000BF0421204807F020FA0028F9D01E486F
:100DD00038300088019002211B4807F01DF900BF40
:100DE0000421194807F011FA0028F9D016493831C2
:100DF000088807F0C5FF0090BDF8040007F0C0FFA9
:100E00000446009908F01AF8009000210E4806F0F8
:100E10003FFF00200C4924310880009807F0C2FEF3
:100E200005460A4A0A4B07F027FC13E0000400407D
:100E300000080140000C0140003801400010014052
:100E4000040000200000002000080040295C8FC240
:100E5000F5684D40074607F067FD84B22146FE481D
:100E600006F098F8009807F06BFF80B2BDE8FC81AF
:100E70002DE9FC410020019000900121F74806F087
:100E800007FF0021F54807F0B5F8FFF739FD00BF6F
:100E90000221F24807F0B9F90028F9D0EF483430C0
:100EA000008801900221ED4807F0A4F800BF02215C
:100EB000EA4807F0AAF90028F9D0E849343108884F
:100EC00007F05EFF0090BDF8040007F059FF0446EC
:100ED000009907F0B3FF00900021E04806F0D8FE2B
:100EE0000020DE4924310880009807F05BFE0546AB
:100EF000DB4ADC4B07F0C0FB074607F015FD84B268
:100F00002146D54806F046F8009807F019FF80B250
:100F1000BDE8FC8138B5002000900024012188073D
:100F200006F0B6FE00214FF0804007F075F800BFD4
:100F30000421080707F069F90028F9D04FF0804034
:100F4000008F00900221C54807F066F800BF042119
:100F5000080707F05AF90028F9D04FF08040008FB9
:100F6000C4B2BDF80000201AC4B2BF4890FBF4F030
:100F7000C4B22146B84806F00DF800214FF0804079
:100F800006F086FE00204FF080418884204638BD60
:100F900038B50020009000240121880706F078FE73
:100FA00000214FF0804007F051F800BF0821C8062B
:100FB00007F02BF90028F9D04FF08040808F009087
:100FC00000BF0821C80607F020F90028F9D04FF02B
:100FD0008040808FC4B2BDF80000201AC4B242F62F
:100FE000EE2090FBF4F0C4B200214FF0804006F0F8
:100FF0004FFE00204FF0804188842146964805F03E
:10100000C9FF204638BD01B5BDF80000B0F5136F2B
:101010000CDCBDF8000040F60B01884206DDBDF88F
:101020000010A1F27B6188B2FFF711FEBDF800004D
:1010300040F60B0188420FDCBDF8000040F2E5618C
:10104000884209DDBDF8001040F60B02511A01F587
:10105000C87188B2FFF7DDFDBDF8000040F2E56120
:10106000884203DC4FF4C870FFF7D3FDBDF80000E1
:10107000B0F5136F03DD7D480088FFF7E8FD08BD7C
:1010800001B5BDF80000B0F5136F0CDCBDF8000031
:1010900040F60B01884206DDBDF80010A1F27B612D
:1010A00088B2FFF7C5FDBDF8000040F60B0188428D
:1010B0000FDCBDF8000040F2E561884209DDBDF8B3
:1010C000001040F60B02511A01F5C87188B2FFF703
:1010D00091FDBDF8000040F2E561884203DC4FF469
:1010E000C870FFF787FDBDF80000B0F5136F03DD92
:1010F0005E480088FFF79CFD08BD10B504464FF41C
:1011000080515B4805F099FB21465A4806F006F9E4
:1011100000BF8021574806F054F90128F9D04FF458
:101120008051534805F087FB10BD10B540F60220F2
:10113000FFF7E3FF40F60730FFF7DFFF4FF41060E3
:10114000FFF7DBFF4FF48070FFF7D7FF4FF400701D
:10115000FFF7D3FF4FF44070FFF7CFFF4FF48060ED
:10116000FFF7CBFF4FF4A060FFF7C7FF4FF4C0605D
:10117000FFF7C3FF4FF4E060FFF7BFFF4FF40060DD
:10118000FFF7BBFF40F60140FFF7B7FF10BD10B5FA
:101190000121394807F045F8002837D001213648A9
:1011A00007F050F835480068401C3449086008468C
:1011B0000068B0F52F7F29D3002008603048007800
:1011C000401C2F4908700846007801281FD10002F2
:1011D000FFF793FF40F27E20FFF78FFF4FF446703A
:1011E000FFF78BFF4FF48360FFF787FF4FF4A36097
:1011F000FFF783FF4FF4C360FFF77FFF4FF4E36017
:10120000FFF77BFF40F67E00FFF777FFAFE01C485B
:101210000078022836D1C001FFF76FFF40F2662048
:10122000FFF76BFF40F2FF30FFF767FF40F2FF4030
:10123000FFF763FF40F2FF50FFF75FFF40F27E6071
:10124000FFF75BFF40F23C70FFF757FF40F61800D6
:10125000FFF753FF8BE0000000380140000800401A
:10126000295C8FC2F5684D404CAD010004000020A0
:10127000000C014000380040001400401C00002019
:10128000200000204E480078032820D14FF48070C1
:10129000FFF733FF4FF40F70FFF72FFF40F2663078
:1012A000FFF72BFF4FF48C60FFF727FF4FF4AC6084
:1012B000FFF723FF4FF4CC60FFF71FFF40F266708B
:1012C000FFF71BFF40F63C00FFF717FF4FE03C48DD
:1012D000007804281FD18001FFF70FFF4FF40F7033
:1012E000FFF70BFF40F26630FFF707FF40F2664062
:1012F000FFF703FF40F26650FFF7FFFE40F2666023
:10130000FFF7FBFE40F23F70FFF7F7FE40F60300E9
:10131000FFF7F3FE2BE02A480078052820D14FF490
:101320008070FFF7EAFE40F26620FFF7E6FE40F22B
:101330006630FFF7E2FE40F26640FFF7DEFE40F265
:101340006650FFF7DAFE40F26660FFF7D6FE40F225
:101350003C70FFF7D2FE40F61800FFF7CEFE06E025
:1013600017480078052802DD00201549087010BDD7
:101370000EB50121202005F07AFC684606F058FCE5
:101380004720ADF800000020ADF8020040F2E73041
:10139000ADF804000020ADF806006946094806F0E3
:1013A0001BF90121074806F04DFF012211460548AF
:1013B00006F089FC0121034806F06AFC0EBD00001E
:1013C0002000002000140040F74908807047F649CB
:1013D000891C0880704708B5F348801C008800907D
:1013E000BDF8000008BDF04A1080921C11807047C3
:1013F00010B504462046FFF7E7FF052004F019FD6D
:10140000FFF7E9FF10BDE9480089E7490880704708
:10141000E549891C0880704730B5014601F01F047A
:10142000C1F34513CA0AE50205EB43151544A8B2FA
:1014300030BD00BF0100A0F10102D0B2FAD1704767
:1014400010B503460C46D948808849F2413188429C
:1014500005D0D648808845F21031884214D1D3494E
:101460004889FFF7B1FF1812FFF7B1FFD8B2FFF7B5
:10147000AEFFCE498889FFF7A7FF2012FFF7A7FF2D
:10148000E0B2FFF7A4FFABE0C848808846F604014D
:1014900088421DD1C5488079012804D1C3480088FD
:1014A000401EC01A83B2C1494889FFF78DFF181248
:1014B000FFF78DFFD8B2FFF78AFFBC498889FFF795
:1014C00083FF2012FFF783FFE0B2FFF780FF87E082
:1014D000B648808841F66311884247D1B348807985
:1014E000A8B9B2480088401EC01A83B2AF494889E3
:1014F000FFF76AFF0020FFF76AFF0020FFF767FF92
:101500001812FFF764FFD8B2FFF761FF16E0A74992
:101510004889FFF759FF1812FFF759FFD8B2FFF7B4
:1015200056FFA2490988491EC1F30F20FFF74FFF5C
:101530009E490978491EC8B2FFF749FF9B4988892F
:10154000FFF742FF2012FFF742FFE0B2FFF73FFF35
:1015500096494988491EC1F30F20FFF738FF934988
:101560008978491EC8B2FFF732FF39E08F4880887A
:1015700045F21051884220D18C494889FFF724FF59
:101580001812FFF724FF89494989491C88B2FFF7DF
:101590001BFFD8B2FFF71BFF84498889FFF714FFB0
:1015A0002012FFF714FF81498989491C88B2FFF78F
:1015B0000BFFE0B2FFF70BFF12E07C4880790128B7
:1015C00004D17A480088401EC01A83B277494889FE
:1015D0001946FFF708FF754988892146FFF703FF81
:1015E00010BD2DE9F04105460E4600240027A04617
:1015F0006E480088A84203DD6C484088B04202DC97
:101600000020BDE8F08131462846FFF719FF674802
:10161000808849F24131884211D06448808846F67A
:10162000040188420BD06148808845F2103188421D
:1016300005D05E48808841F66311884203D12E2090
:10164000FFF7C2FE0DE05948808845F210518842EC
:1016500004D14FF43850FFF7B7FE02E02220FFF725
:10166000B3FE5248808849F22031884202D10220DC
:10167000FFF7DFFEFFF7AFFE04464C48808841F6D7
:101680006311884201D12046BBE70220FFF7D1FE5B
:10169000FFF7A1FE04464548808849F2413188425F
:1016A0000BD04248808845F21031884205D03F482F
:1016B000808845F2105188420AD10220FFF7B9FE16
:1016C000FFF789FE8046E7B24FF6FF7000EA072772
:1016D0003648808849F22531884216D033488088C0
:1016E00044F23551884210D030488088091F884222
:1016F0000BD02E4880884BF20551884205D02B48EC
:1017000080884CF20551884201D1204679E727486C
:10171000808849F2413188420BD02448808845F2C4
:101720001031884205D02148808845F21051884206
:1017300007D1E012C002B91240EA411040EAE820A5
:101740005FE72046FFF768FE5BE700B51748808833
:1017500049F24131884211D01448808846F604018C
:1017600088420BD01148808845F21031884205D05C
:101770000E48808841F66311884203D12920FFF783
:1017800023FE0FE00948808845F21051884204D1B9
:101790004FF42450FFF718FE04E040F273110720C5
:1017A000FFF721FE00BD0000FEFF016048000020A1
:1017B00000B5FD48808849F24131884211D0FA488D
:1017C000808846F6040188420BD0F748808845F2AD
:1017D0001031884205D0F448808841F66311884270
:1017E00003D12820FFF7F0FD0EE0EF48808845F296
:1017F0001051884204D14FF42050FFF7E5FD03E07B
:1018000000210720FFF7EFFD00BD70B5044600235F
:101810000026E548807901280BD1E348808846F608
:101820000401884205D0E048808841F6631188426F
:1018300008D1DD488079F0B9DB48808841F6631132
:10184000884218D1082C15D2DFE804F00406080AF3
:101850000C0E101206240DE007240BE0042409E00E
:10186000052407E0012405E0002403E0032401E04F
:10187000022400BF00BFCC48808849F24131884231
:1018800017D0C948808846F60401884211D0C6485E
:10189000808845F2103188420BD0C348808845F2D9
:1018A0001051884205D0C048808841F663118842B3
:1018B0007ED1082C1CD2DFE804F00406090C0F12BC
:1018C000151800BF14E043F0800311E043F040031B
:1018D0000EE043F0C0030BE043F0200308E043F0C8
:1018E000600305E043F0A00302E043F0E00300BF23
:1018F00000BFAD48808845F21051884202D14FF4B4
:10190000585600E03626A848808845F210318842B3
:101910000DD0A548808845F21051884207D0A248D2
:10192000808841F66311884201D043F008039E4845
:10193000808846F60401884201D143F0020319462B
:101940003046FFF750FD9848808841F66311884281
:101950001DD003F0200068B193480088924949885F
:10196000884214DA9048058840888F4908800846E4
:1019700045800CE08C4800888B494988884206DD08
:1019800089480588408888490880084645808648F7
:10199000808845F21051884254D183494889FFF725
:1019A00013FD0020FFF713FD7F494989491C00E022
:1019B00077E088B2FFF708FD0020FFF708FD7A49BD
:1019C0004989891C88B2FFF7FFFC77490988491EBD
:1019D000C1F30F20FFF7FBFC73494989C91C88B28A
:1019E000FFF7F2FC70490978491EC8B2FFF7EFFC17
:1019F0006D498889FFF7E8FC0020FFF7E8FC6A4999
:101A00008989491C88B2FFF7DFFC0020FFF7DFFC63
:101A100065498989891C88B2FFF7D6FC62494988E3
:101A2000491EC1F30F20FFF7D2FC5F498989C91C09
:101A300088B2FFF7C9FC5C498978491EC8B2FFF734
:101A4000C6FC55E058494889FFF7BEFC0020FFF767
:101A5000BEFC0020FFF7BBFC53490988491EC1F3B7
:101A60000F20FFF7B4FC50490978491EC8B2FFF7B0
:101A7000AEFC4D498889FFF7A7FC0020FFF7A7FCC3
:101A80000020FFF7A4FC48494988491EC1F30F20F4
:101A9000FFF79DFC44498978491EC8B2FFF797FCBF
:101AA00026E0082C1CD2DFE804F004070A0D0F1210
:101AB000151843F0300313E043F0100310E043F037
:101AC00020030DE000BF0BE043F0380308E043F0D3
:101AD000280305E043F0180302E043F0080300BFC9
:101AE00000BF032643F4805319463046FFF77BFCC2
:101AF00070BD30B504460D4629462046FFF7A0FCD0
:101B0000FFF781FC294800882949088030BD30B59D
:101B100003460C4615462448808849F241318842E4
:101B200005D02148808845F21031884214D11E49E1
:101B30004889FFF749FC1812FFF749FCD8B2FFF7B4
:101B400046FC19498889FFF73FFC2012FFF73FFC4C
:101B5000E0B2FFF73CFC93E01348808845F2105157
:101B6000884227D110494889FFF72EFC1812FFF749
:101B70002EFC0D494989491C88B2FFF725FCD8B2D3
:101B8000FFF725FC08498889FFF71EFC2012FFF7A4
:101B90001EFC05498989491C88B2FFF715FCE0B293
:101BA000FFF715FC6CE00000480000202200002038
:101BB00000000260FC48808841F66311884228D109
:101BC000F948807920B9F8480088401EC01A83B2CD
:101BD000F5494889FFF7F8FB1812FFF7F8FBD8B270
:101BE000FFF7F5FB1812FFF7F2FBD8B2FFF7EFFB98
:101BF000ED498889FFF7E8FB2012FFF7E8FBE0B228
:101C0000FFF7E5FB2012FFF7E2FBE0B2FFF7DFFB97
:101C100036E0E548808846F6040188421DD1E24856
:101C20008079012804D1E0480088401EC01A83B2A0
:101C3000DD494889FFF7C8FB1812FFF7C8FBD8B287
:101C4000FFF7C5FBD8498889FFF7BEFB2012FFF7D5
:101C5000BEFBE0B2FFF7BBFB12E0D348807901285E
:101C600004D1D1480088401EC01A83B2CE494889A9
:101C70001946FFF7B8FBCC4988892146FFF7B3FB2B
:101C8000C9480089C9490880881C058030BD2DE9F4
:101C9000F0470446BE20FFF797FB0520FFF797FBB0
:101CA000204606F06EFE07464FF06632C04B06F047
:101CB0007BFE054606F038FE1FFA80F94846FFF71E
:101CC00086FB0120FFF783FBFF20FFF780FB00204E
:101CD000FFF77DFB0020FFF77AFBBDE8F08710B52A
:101CE0000446002C66D1B0498871F02008804FF47A
:101CF000A07048800846808849F2413188420BD064
:101D0000A948808846F60401884205D0A648808804
:101D100045F2103188421AD12C20A34908812A208B
:101D200048812B2088810846808846F60401884235
:101D300005D09D48808845F21031884206D14FF485
:101D4000A070994908804FF4F0704880A1E096484F
:101D5000808845F21051884210D14FF4305092499A
:101D600008814FF4285048814FF42C5088814FF45B
:101D7000F07008804FF4487048808AE08A48808874
:101D800041F6631188420DD12C20874908812B2010
:101D900048812A2088814FF4F07008804FF4487001
:101DA000488076E022208049088120204881212037
:101DB00088816EE001207C4988714FF4A070088012
:101DC000F02048800846808849F24131884205D099
:101DD0007548808845F21031884207D12C2072491D
:101DE00008812A2048812B2088813FE06E48808826
:101DF00046F60401884207D12C206B4908812B202C
:101E000048812A20888131E06748808845F2105156
:101E1000884210D14FF43050634908814FF4285064
:101E200048814FF42C5088814FF4487008804FF45B
:101E3000F07048801AE05C48808841F6631188425F
:101E40000DD12C20584908812A2048812B208881D7
:101E50004FF4487008804FF4F070488006E022206C
:101E60005149088121204881202088814E4880885E
:101E700046F60401884205D04B48808845F210316F
:101E8000884206D14FF4F070474908804FF4A070A3
:101E900048800020FFF7B9FC10BD2DE9F04F86B057
:101EA00004460D469046994604EB0800401E86B253
:101EB00005EB0900401E87B23B48808849F241315A
:101EC000884215D03848808845F2103188420FD0BA
:101ED0003548808846F60401884209D03248807926
:101EE000012826D13048808841F66311884220D1EC
:101EF0002D494889FFF768FA2012FFF768FAE0B227
:101F0000FFF765FA3012FFF762FAF0B2FFF75FFAF7
:101F100025498889FFF758FA2812FFF758FAE8B2DE
:101F2000FFF755FA3812FFF752FAF8B2FFF74FFAF7
:101F3000BEE01D48808841F6631188423AD11A48B4
:101F40000088A0EB0800001B84B205EB0900401ECE
:101F50001FFA80F914494889FFF736FA2012FFF773
:101F600036FAE0B2FFF733FA04EB0801491EC1F379
:101F70000F20FFF72CFA04EB0801491EC8B2FFF747
:101F800026FA09498889FFF71FFA2812FFF71FFA76
:101F9000E8B2FFF71CFA4FEA2920FFF718FA09F018
:101FA000FF00FFF714FA83E048000020FEFF016005
:101FB00066660440FD48808845F21051884244D14D
:101FC000FA494889FFF700FA2012FFF700FAF749AB
:101FD0004989491C88B2FFF7F7F9E0B2FFF7F7F932
:101FE000F2494989891C88B2FFF7EEF93012FFF7F0
:101FF000EEF9EE494989C91C88B2FFF7E5F9F0B25C
:10200000FFF7E5F9E9498889FFF7DEF92812FFF7BC
:10201000DEF9E6498989491C88B2FFF7D5F9E8B2AB
:10202000FFF7D5F9E1498989891C88B2FFF7CCF916
:102030003812FFF7CCF9DD498989C91C88B2FFF74E
:10204000C3F9F8B2FFF7C3F932E0D8488079012824
:102050000ED1AA46BB46D5480088801B401E80B2E0
:102060000190D2480088001B401E80B2009003E01F
:10207000A246B34601950097502005905120049048
:10208000522003905320029051460598FFF7ABF978
:1020900059460498FFF7A7F901990398FFF7A3F9A8
:1020A00000990298FFF79FF929462046FFF7C8F9E3
:1020B00006B0BDE8F08F70B504460026BB48058821
:1020C00040884543B948808846F60401884216D1C5
:1020D000B6488079012812D10020B44988712A209D
:1020E00048812B20888100210846FFF7A9F90120AB
:1020F000AE4988712B2048812A20888103E0002185
:102100000846FFF79DF9FFF77EF9002602E0A84890
:102110000480761CAE42FAD370BD00B59FB0012199
:10212000080204F08AFD01214FF4B47004F092FD1E
:102130000120ADF8780010208DF87B0003208DF889
:102140007A001EA99B4804F0C9FA4CF6B370ADF8AA
:10215000780003208DF87A0018208DF87B001EA9E6
:10216000954804F0BBFA4FF68070ADF87800032074
:102170008DF87A0018208DF87B001EA98F4804F096
:10218000ADFA01200890002009900F200A9000204D
:102190000B900C900D900E900190029003200390F4
:1021A000002004900590069007900F9010901190D9
:1021B00010201290002013901590149016901790F4
:1021C0004FF480501890002019904FF480401A90DE
:1021D00000201B9008A81C9001A81D900FA803F0D8
:1021E00063FF0121002004F0C7F8322003F045FE10
:1021F0000020FFF7FDF86D49888008468088FF2899
:102200000ADB084680884FF6FF71884204D0674891
:102210008088B0F5134F7CD1D320FFF7D5F8FFF7B6
:10222000DAF862498880FFF7D6F860498880FFF7BE
:10223000D2F85E498880084680884FF6FF7101EA2F
:1022400000205A498880FFF7C6F858498988084312
:10225000564988800846808849F24131884258D0E2
:10226000BF20FFF7B1F8FFF7B6F850498880FFF7B5
:10227000B2F84E498880FFF7AEF84C498880FFF7E6
:10228000AAF84A498880084680884FF6FF7101EA1B
:10229000002046498880FFF79EF844498988084312
:1022A000424988800846808846F6040188427AD0F0
:1022B000D420FFF789F8FFF78EF83C498880FFF7B4
:1022C0008AF83A498880FFF786F8384988800846B6
:1022D00080884FF6FF7101EA002034498880FFF7BB
:1022E0007AF83249898808433049888008468088CE
:1022F00045F21031884256D04FF45A40FFF764F847
:10230000FFF769F8294988804FF45B40FFF75CF8D4
:1023100000E048E0FFF75FF824498880084680889D
:102320004FF6FF7101EA0020204988804FF45C409D
:10233000FFF74AF8FFF74FF81C49898808431B4903
:10234000888008468088B0F5004F02D145F21050D1
:1023500088801648808845F21051884223D0A120F9
:10236000FFF732F8FFF737F810498880FFF733F8A6
:102370000E498880084680884FF6FF7101EA0020E8
:102380000A498880FFF727F80849898808430749E0
:1023900088800846808845F26171884203D141F601
:1023A0006310024988800148818809E048000020C4
:1023B00000000260000C01400014014000180140C0
:1023C000FBA005F043FFFE48808849F24131884276
:1023D0007ED1CF20FEF7F8FF0020FEF7F8FFC120E6
:1023E000FEF7F5FF3020FEF7F2FFED20FEF7ECFFE1
:1023F0006420FEF7ECFF0320FEF7E9FF1220FEF752
:10240000E6FF8120FEF7E3FFE820FEF7DDFF8520F1
:10241000FEF7DDFF1020FEF7DAFF7A20FEF7D7FF88
:10242000CB20FEF7D1FF3920FEF7D1FF2C20FEF79D
:10243000CEFF0020FEF7CBFF3420FEF7C8FF0220BE
:10244000FEF7C5FFF720FEF7BFFF2020FEF7BFFF16
:10245000EA20FEF7B9FF0020FEF7B9FF0020FEF7E3
:10246000B6FFC020FEF7B0FF1B20FEF7B0FFC12073
:10247000FEF7AAFF0120FEF7AAFFC520FEF7A4FF82
:102480003020FEF7A4FF3020FEF7A1FFC720FEF7A3
:102490009BFFB720FEF79BFF3620FEF795FF4820F5
:1024A000FEF795FF3A20FEF78FFF5520FEF78FFFCE
:1024B000B120FEF789FF0020FEF789FF1A20FEF702
:1024C00086FFB620FEF780FF0A20FEF780FF00E0BF
:1024D00097E0A220FEF77BFFF220FEF775FF0020B9
:1024E000FEF775FF2620FEF76FFF0120FEF76FFF56
:1024F000E020FEF769FF0F20FEF769FF2A20FEF7B4
:1025000066FF2820FEF763FF0820FEF760FF0E201D
:10251000FEF75DFF0820FEF75AFF5420FEF757FF35
:10252000A920FEF754FF4320FEF751FF0A20FEF7D3
:102530004EFF0F20FEF74BFF0020FEF748FF002064
:10254000FEF745FF0020FEF742FF0020FEF73FFFA9
:10255000E120FEF739FF0020FEF739FF1520FEF7D6
:1025600036FF1720FEF733FF0720FEF730FF11205C
:10257000FEF72DFF0620FEF72AFF2B20FEF727FF90
:102580005620FEF724FF3C20FEF721FF0520FEF732
:102590001EFF1020FEF71BFF0F20FEF718FF3F2045
:1025A000FEF715FF3F20FEF712FF0F20FEF70FFF8B
:1025B0002B20FEF709FF0020FEF709FF0020FEF7A1
:1025C00006FF0120FEF703FF3F20FEF700FF2A2051
:1025D000FEF7FAFE0020FEF7FAFE0020FEF7F7FEF7
:1025E0000020FEF7F4FEEF20FEF7F1FE1120FEF7CB
:1025F000EBFE782003F041FC2920FEF7E5FE03F016
:1026000025B96F48808846F6040188427ED11120A2
:10261000FEF7DAFE142003F030FCD020FEF7D4FEE3
:102620000720FEF7D4FE4220FEF7D1FE1D20FEF764
:10263000CEFED120FEF7C8FE0020FEF7C8FE1A200D
:10264000FEF7C5FE0920FEF7C2FED220FEF7BCFE53
:102650000120FEF7BCFE2220FEF7B9FEC020FEF7E7
:10266000B3FE1020FEF7B3FE3B20FEF7B0FE0020C5
:10267000FEF7ADFE0220FEF7AAFE1120FEF7A7FE30
:10268000C520FEF7A1FE0320FEF7A1FEC820FEF73D
:102690009BFE0020FEF79BFE2520FEF798FE2120E2
:1026A000FEF795FE0520FEF792FE0020FEF78FFE56
:1026B0000A20FEF78CFE6520FEF789FE2520FEF736
:1026C00086FE7720FEF783FE5020FEF780FE0F2067
:1026D000FEF77DFE0020FEF77AFEF820FEF774FE7E
:1026E0000120FEF774FEFE20FEF76EFE0020FEF7CE
:1026F0006EFE0220FEF76BFE2020FEF765FE362000
:10270000FEF762FE0820FEF762FE00E02AE03A20B3
:10271000FEF75AFE5520FEF75AFE2B20FEF754FE18
:102720000020FEF754FE0020FEF751FE0120FEF7C8
:102730004EFE3F20FEF74BFE2A20FEF745FE00200E
:10274000FEF745FE0020FEF742FE0120FEF73FFEA9
:10275000DF20FEF73CFE782003F08FFB2920FEF7F8
:1027600033FE4CE71648808845F21031884240F02D
:102770008487ED20FEF728FE0120FEF728FEFE20CC
:10278000FEF725FEEE20FEF71FFEDE20FEF71FFE01
:102790002120FEF71CFEF120FEF716FE0120FEF7B9
:1027A00016FEDF20FEF710FE1020FEF710FE09E0F7
:1027B000204C43442049443A25780D0A000000008B
:1027C00048000020C420FEF7FFFD8F20FEF7FFFD2C
:1027D000C620FEF7F9FD0020FEF7F9FDE220FEF726
:1027E000F6FDE220FEF7F3FDE220FEF7F0FDBF204C
:1027F000FEF7EAFDAA20FEF7EAFDB020FEF7E4FDB1
:102800000D20FEF7E4FD0020FEF7E1FD0D20FEF7B0
:10281000DEFD0020FEF7DBFD1120FEF7D8FD0020D5
:10282000FEF7D5FD1920FEF7D2FD0020FEF7CFFD03
:102830002120FEF7CCFD0020FEF7C9FD2D20FEF77C
:10284000C6FD0020FEF7C3FD3D20FEF7C0FD0020C1
:10285000FEF7BDFD5D20FEF7BAFD0020FEF7B7FDD7
:102860005D20FEF7B4FD0020FEF7B1FDB120FEF7BC
:10287000ABFD8020FEF7ABFD0020FEF7A8FD8B200E
:10288000FEF7A5FD0020FEF7A2FD9620FEF79FFDB6
:102890000020FEF79CFDB220FEF796FD0020FEF71B
:1028A00096FD0020FEF793FD0220FEF790FD00202C
:1028B000FEF78DFD0320FEF78AFD0020FEF787FD61
:1028C000B320FEF781FD0020FEF781FD0020FEF71A
:1028D0007EFD0020FEF77BFD0020FEF778FD002046
:1028E000FEF775FD0020FEF772FD0020FEF76FFD7C
:1028F0000020FEF76CFD0020FEF769FD0020FEF7CA
:1029000066FD0020FEF763FD0020FEF760FD00205D
:10291000FEF75DFD0020FEF75AFD0020FEF757FD93
:102920000020FEF754FD0020FEF751FD0020FEF7C9
:102930004EFD0020FEF74BFD0020FEF748FD002075
:10294000FEF745FD0020FEF742FD0020FEF73FFDAB
:102950000020FEF73CFDB420FEF736FD8B20FEF78D
:1029600036FD0020FEF733FD9620FEF730FD0020F7
:10297000FEF72DFDA120FEF72AFD0020FEF727FD22
:10298000B520FEF721FD0220FEF721FD0020FEF715
:102990001EFD0320FEF71BFD0020FEF718FD04209E
:1029A000FEF715FD0020FEF712FDB620FEF70CFD28
:1029B0000020FEF70CFD0020FEF709FDB720FEF712
:1029C00003FD0020FEF703FD0020FEF700FD3F2081
:1029D000FEF7FDFC0020FEF7FAFC5E20FEF7F7FC98
:1029E0000020FEF7F4FC6420FEF7F1FC0020FEF767
:1029F000EEFC8C20FEF7EBFC0020FEF7E8FCAC20A0
:102A0000FEF7E5FC0020FEF7E2FCDC20FEF7DFFC31
:102A10000020FEF7DCFC7020FEF7D9FC0020FEF75A
:102A2000D6FC9020FEF7D3FC0020FEF7D0FCEB2074
:102A3000FEF7CDFC0020FEF7CAFCDC20FEF7C7FC49
:102A40000020FEF7C4FCB820FEF7BEFC0020FEF715
:102A5000BEFC0020FEF7BBFC0020FEF7B8FC002007
:102A6000FEF7B5FC0020FEF7B2FC0020FEF7AFFC3D
:102A70000020FEF7ACFC0020FEF7A9FCBA20FEF710
:102A8000A3FC2420FEF7A3FC0020FEF7A0FC0020FE
:102A9000FEF79DFC0020FEF79AFCC120FEF794FC97
:102AA0002020FEF794FC0020FEF791FC5420FEF756
:102AB0008EFC0020FEF78BFCFF20FEF788FC002038
:102AC000FEF785FCC220FEF77FFC0A20FEF77FFCA4
:102AD0000020FEF77CFC0420FEF779FC0020FEF7C6
:102AE00076FCC320FEF770FC3C20FEF770FC002053
:102AF000FEF76DFC3A20FEF76AFC0020FEF767FC4B
:102B00003920FEF764FC0020FEF761FC3720FEF759
:102B10005EFC0020FEF75BFC3C20FEF758FC00202A
:102B2000FEF755FC3620FEF752FC0020FEF74FFC66
:102B30003220FEF74CFC0020FEF749FC2F20FEF768
:102B400046FC0020FEF743FC2C20FEF740FC002052
:102B5000FEF73DFC2920FEF73AFC0020FEF737FC8B
:102B60002620FEF734FC0020FEF731FC2420FEF77F
:102B70002EFC0020FEF72BFC2420FEF728FC002072
:102B8000FEF725FC2320FEF722FC0020FEF71FFCA9
:102B90003C20FEF71CFC0020FEF719FC3620FEF757
:102BA00016FC0020FEF713FC3220FEF710FC00207C
:102BB000FEF70DFC2F20FEF70AFC0020FEF707FCB5
:102BC0002C20FEF704FC0020FEF701FC2920FEF774
:102BD000FEFB0020FEF7FBFB2620FEF7F8FB0020A3
:102BE000FEF7F5FB2420FEF7F2FB0020FEF7EFFBDB
:102BF0002420FEF7ECFB0020FEF7E9FB2320FEF784
:102C0000E6FB0020FEF7E3FBC420FEF7DDFB6220BD
:102C1000FEF7DDFB0020FEF7DAFB0520FEF7D7FB11
:102C20000020FEF7D4FB8420FEF7D1FB0020FEF746
:102C3000CEFBF020FEF7CBFB0020FEF7C8FB1820F0
:102C4000FEF7C5FB0020FEF7C2FBA420FEF7BFFB8A
:102C50000020FEF7BCFB1820FEF7B9FB0020FEF7B2
:102C6000B6FB5020FEF7B3FB0020FEF7B0FB0C20B4
:102C7000FEF7ADFB0020FEF7AAFB1720FEF7A7FB2F
:102C80000020FEF7A4FB9520FEF7A1FB0020FEF735
:102C90009EFBF320FEF79BFB0020FEF798FBE6204F
:102CA000FEF795FB0020FEF792FBC520FEF78CFB9C
:102CB0003220FEF78CFB0020FEF789FB4420FEF754
:102CC00086FB0020FEF783FB6520FEF780FB0020DB
:102CD000FEF77DFB7620FEF77AFB0020FEF777FB00
:102CE0008820FEF774FB0020FEF771FBC620FEF77C
:102CF0006BFB2020FEF76BFB0020FEF768FB172024
:102D0000FEF765FB0020FEF762FB0120FEF75FFB8C
:102D10000020FEF75CFBC720FEF756FB0020FEF705
:102D200056FB0020FEF753FB0020FEF750FB00206F
:102D3000FEF74DFBC820FEF747FB0020FEF747FBE0
:102D40000020FEF744FB0020FEF741FB0020FEF7C9
:102D50003EFBC920FEF738FB0020FEF738FB0020C1
:102D6000FEF735FB0020FEF732FB0020FEF72FFBBD
:102D70000020FEF72CFB0020FEF729FB0020FEF7C9
:102D800026FB0020FEF723FB0020FEF720FB00209F
:102D9000FEF71DFB0020FEF71AFB0020FEF717FBD5
:102DA0000020FEF714FB0020FEF711FB0020FEF7C9
:102DB0000EFB0020FEF70BFBE020FEF705FB1620C4
:102DC000FEF705FB0020FEF702FB1C20FEF7FFFAD2
:102DD0000020FEF7FCFA2120FEF7F9FA0020FEF7AA
:102DE000F6FA3620FEF7F3FA0020FEF7F0FA462056
:102DF000FEF7EDFA0020FEF7EAFA5220FEF7E7FAB6
:102E00000020FEF7E4FA6420FEF7E1FA0020FEF766
:102E1000DEFA7A20FEF7DBFA0020FEF7D8FA8B20E4
:102E2000FEF7D5FA0020FEF7D2FA9920FEF7CFFA86
:102E30000020FEF7CCFAA820FEF7C9FA0020FEF722
:102E4000C6FAB920FEF7C3FA0020FEF7C0FAC42084
:102E5000FEF7BDFA0020FEF7BAFACA20FEF7B7FA6D
:102E60000020FEF7B4FAD220FEF7B1FA0020FEF7F8
:102E7000AEFAD920FEF7ABFA0020FEF7A8FAE02060
:102E8000FEF7A5FA0020FEF7A2FAF320FEF79FFA5C
:102E90000020FEF79CFAE120FEF796FA1620FEF7D6
:102EA00096FA0020FEF793FA1C20FEF790FA002015
:102EB000FEF78DFA2220FEF78AFA0020FEF787FA45
:102EC0003620FEF784FA0020FEF781FA4520FEF74F
:102ED0007EFA0020FEF77BFA5220FEF778FA0020F7
:102EE000FEF775FA6420FEF772FA0020FEF76FFA1B
:102EF0007A20FEF76CFA0020FEF769FA8B20FEF7C5
:102F000066FA0020FEF763FA9920FEF760FA0020C7
:102F1000FEF75DFAA820FEF75AFA0020FEF757FAEE
:102F2000B920FEF754FA0020FEF751FAC420FEF74C
:102F30004EFA0020FEF74BFACA20FEF748FA0020AE
:102F4000FEF745FAD220FEF742FA0020FEF73FFADC
:102F5000D820FEF73CFA0020FEF739FAE020FEF711
:102F600036FA0020FEF733FAF320FEF730FA00209D
:102F7000FEF72DFAE220FEF727FA0520FEF727FAE2
:102F80000020FEF724FA0B20FEF721FA0020FEF7BE
:102F90001EFA1B20FEF71BFA0020FEF718FA342059
:102FA000FEF715FA0020FEF712FA4420FEF70FFA9A
:102FB0000020FEF70CFA4F20FEF709FA0020FEF77A
:102FC00006FA6120FEF703FA0020FEF700FA7920E6
:102FD000FEF7FDF90020FEF7FAF98820FEF7F7F971
:102FE0000020FEF7F4F99720FEF7F1F90020FEF734
:102FF000EEF9A620FEF7EBF90020FEF7E8F9B7207E
:10300000FEF7E5F90020FEF7E2F9C220FEF7DFF94E
:103010000020FEF7DCF9C720FEF7D9F90020FEF703
:10302000D6F9D120FEF7D3F90020FEF7D0F9D6204B
:10303000FEF7CDF90020FEF7CAF9DD20FEF7C7F94B
:103040000020FEF7C4F9F320FEF7C1F90020FEF7D7
:10305000BEF9E320FEF7B8F90520FEF7B8F9002025
:10306000FEF7B5F90A20FEF7B2F90020FEF7AFF936
:103070001C20FEF7ACF90020FEF7A9F93320FEF77B
:10308000A6F90020FEF7A3F94420FEF7A0F90020DE
:10309000FEF79DF95020FEF79AF90020FEF797F908
:1030A0006220FEF794F90020FEF791F97820FEF7F0
:1030B0008EF90020FEF78BF98820FEF788F90020B2
:1030C000FEF785F99720FEF782F90020FEF77FF9D9
:1030D000A620FEF77CF90020FEF779F9B720FEF76D
:1030E00076F90020FEF773F9C220FEF770F9002090
:1030F000FEF76DF9C720FEF76AF90020FEF767F9C1
:10310000D120FEF764F90020FEF761F9D520FEF723
:103110005EF90020FEF75BF9DD20FEF758F900208C
:10312000FEF755F9F320FEF752F90020FEF74FF9AC
:10313000E420FEF749F90120FEF749F90020FEF7E7
:1031400046F90120FEF743F90020FEF740F902207E
:10315000FEF73DF90020FEF73AF92A20FEF737F98D
:103160000020FEF734F93C20FEF731F90020FEF78D
:103170002EF94B20FEF72BF90020FEF728F95D20F1
:10318000FEF725F90020FEF722F97420FEF71FF95B
:103190000020FEF71CF98420FEF719F90020FEF745
:1031A00016F99320FEF713F90020FEF710F9A2207C
:1031B000FEF70DF90020FEF70AF9B320FEF707F934
:1031C0000020FEF704F9BE20FEF701F90020FEF70B
:1031D000FEF8C420FEF7FBF80020FEF7F8F8CD203B
:1031E000FEF7F5F80020FEF7F2F8D320FEF7EFF82F
:1031F0000020FEF7ECF8DD20FEF7E9F80020FEF7EE
:10320000E6F8F320FEF7E3F80020FEF7E0F8E5200B
:10321000FEF7DAF80020FEF7DAF80020FEF7D7F81C
:103220000020FEF7D4F80020FEF7D1F80220FEF7C8
:10323000CEF80020FEF7CBF82920FEF7C8F80020D2
:10324000FEF7C5F83C20FEF7C2F80020FEF7BFF8F5
:103250004B20FEF7BCF80020FEF7B9F85D20FEF722
:10326000B6F80020FEF7B3F87420FEF7B0F800209F
:10327000FEF7ADF88420FEF7AAF80020FEF7A7F8C5
:103280009320FEF7A4F80020FEF7A1F8A220FEF795
:103290009EF80020FEF79BF8B320FEF798F8002078
:1032A000FEF795F8BE20FEF792F80020FEF78FF8A3
:1032B000C420FEF78CF80020FEF789F8CD20FEF739
:1032C00086F80020FEF783F8D320FEF780F8002070
:1032D000FEF77DF8DC20FEF77AF80020FEF777F89D
:1032E000F320FEF774F80020FEF771F8E620FEF7F1
:1032F0006BF81120FEF76BF80020FEF768F8342019
:10330000FEF765F80020FEF762F85620FEF75FF83A
:103310000020FEF75CF87620FEF759F80020FEF753
:1033200056F87720FEF753F80020FEF750F8662095
:10333000FEF74DF80020FEF74AF88820FEF747F820
:103340000020FEF744F89920FEF741F80020FEF730
:103350003EF8BB20FEF73BF80020FEF738F8992036
:10336000FEF735F80020FEF732F86620FEF72FF85A
:103370000020FEF72CF85520FEF729F80020FEF774
:1033800026F85520FEF723F80020FEF720F8452008
:10339000FEF71DF80020FEF71AF84320FEF717F895
:1033A0000020FEF714F84420FEF711F80020FEF785
:1033B0000EF8E720FEF708F83220FEF708F80020A4
:1033C000FEF705F85520FEF702F80020FDF7FFFF95
:1033D0007620FDF7FCFF0020FDF7F9FF6620FDF7E2
:1033E000F6FF0020FDF7F3FF6720FDF7F0FF002058
:1033F000FDF7EDFF6720FDF7EAFF0020FDF7E7FF8F
:103400008720FDF7E4FF0020FDF7E1FF9920FDF79D
:10341000DEFF0020FDF7DBFFBB20FDF7D8FF00201B
:10342000FDF7D5FF9920FDF7D2FF0020FDF7CFFF74
:103430007720FDF7CCFF0020FDF7C9FF4420FDF702
:10344000C6FF0020FDF7C3FF5620FDF7C0FF002098
:10345000FDF7BDFF2320FDF7BAFF0020FDF7B7FF02
:103460003320FDF7B4FF0020FDF7B1FF4520FDF745
:10347000AEFF0020FDF7ABFFE820FDF7A5FF002021
:10348000FDF7A5FF0020FDF7A2FF9920FDF79FFFA4
:103490000020FDF79CFF8720FDF799FF0020FDF736
:1034A00096FF8820FDF793FF0020FDF790FF77201F
:1034B000FDF78DFF0020FDF78AFF6620FDF787FFEF
:1034C0000020FDF784FF8820FDF781FF0020FDF735
:1034D0007EFFAA20FDF77BFF0020FDF778FFBB20D1
:1034E000FDF775FF0020FDF772FF9920FDF76FFFD4
:1034F0000020FDF76CFF6620FDF769FF0020FDF757
:1035000066FF5520FDF763FF0020FDF760FF5520A3
:10351000FDF75DFF0020FDF75AFF4420FDF757FF40
:103520000020FDF754FF4420FDF751FF0020FDF778
:103530004EFF5520FDF74BFF0020FDF748FFE92027
:10354000FDF742FFAA20FDF742FF0020FDF73FFFF5
:103550000020FDF73CFF0020FDF739FF0020FDF7BC
:1035600033FFAA20FDF733FFCF20FDF72DFF00200A
:10357000FDF72DFF0020FDF72AFF0020FDF727FFB4
:103580000020FDF724FF0020FDF721FF0020FDF7BC
:103590001EFF0020FDF71BFF0020FDF718FF002095
:1035A000FDF715FF0020FDF712FF0020FDF70FFFCC
:1035B0000020FDF70CFF0020FDF709FF0020FDF7BC
:1035C00006FF0020FDF703FF0020FDF700FF0020AD
:1035D000FDF7FDFEF020FDF7F7FE0020FDF7F7FEFA
:1035E0005020FDF7F4FE0020FDF7F1FE0020FDF76E
:1035F000EEFE0020FDF7EBFEF320FDF7E5FE0020D8
:10360000FDF7E5FEF920FDF7DFFE0620FDF7DFFE02
:103610001020FDF7DCFE2920FDF7D9FE0020FDF784
:10362000D6FE3A20FDF7D0FE5520FDF7D0FE112042
:10363000FDF7CAFE642002F020FC2920FDF7C4FE3D
:103640003520FDF7C1FE0020FDF7C1FE5120FDF73A
:10365000BBFEFF20FDF7BBFE5320FDF7B5FE2C207F
:10366000FDF7B5FE5520FDF7AFFE8220FDF7AFFE5A
:103670002C20FDF7A9FE02F0E9B8FE48808845F24B
:10368000105188427ED155214FF47040FDF7ABFEBA
:10369000AA214FF20100FDF7A6FE52214FF20200CF
:1036A000FDF7A1FE08214FF20300FDF79CFE01216A
:1036B0004FF20400FDF797FE0D214FF43040FDF767
:1036C00092FE0D214BF20100FDF78DFE0D214BF214
:1036D0000200FDF788FE34214FF43640FDF783FEEB
:1036E00034214BF20160FDF77EFE34214BF2026083
:1036F000FDF779FE0D214FF43140FDF774FE0D21E9
:103700004BF20110FDF76FFE0D214BF20210FDF799
:103710006AFE34214FF43740FDF765FE34214BF249
:103720000170FDF760FE34214BF20270FDF75BFE85
:1037300000214FF43240FDF756FE00214BF20120EC
:10374000FDF751FE00214BF20220FDF74CFE242133
:103750004FF43840FDF747FE24214BF60100FDF7FA
:1037600042FE24214BF60200FDF73DFE01214FF4FD
:103770003F40FDF738FE0F214FF43340FDF733FE95
:103780000F2100E0FEE34BF20130FDF72CFE0F218C
:103790004BF20230FDF727FE34214FF43940FDF79C
:1037A00022FE34214BF60110FDF71DFE34214BF6AD
:1037B0000210FDF718FE08214FF43540FDF713FE07
:1037C00008214BF20150FDF70EFE08214BF202508A
:1037D000FDF709FE03214FF44240FDF704FE2421CA
:1037E0004FF43A40FDF7FFFD24214BF60120FDF791
:1037F000FAFD24214BF60220FDF7F5FD00214FF4E0
:103800003C40FDF7F0FD78214BF60140FDF7EBFD64
:1038100000214BF60240FDF7E6FD00214FF43D404C
:10382000FDF7E1FD78214BF60150FDF7DCFD0021AD
:103830004BF60250FDF7D7FD00214FF43E40FDF757
:10384000D2FD64214BF60160FDF7CDFD00214FF460
:103850005140FDF7C8FD33214DF20110FDF7C3FDC6
:1038600000214DF20210FDF7BEFD34214DF2031090
:10387000FDF7B9FD00214DF20410FDF7B4FD3A212A
:103880004DF20510FDF7AFFD00214DF20610FDF7DA
:10389000AAFD4A214DF20710FDF7A5FD00214DF2CA
:1038A0000810FDF7A0FD5C214DF20910FDF79BFD0E
:1038B00000214DF20A10FDF796FD81214DF20B100B
:1038C000FDF791FD00214DF20C10FDF78CFDA621B6
:1038D0004DF20D10FDF787FD00214DF20E10FDF7A2
:1038E00082FDE5214DF20F10FDF77DFD01214DF226
:1038F0001010FDF778FD13214DF21110FDF773FD47
:1039000001214DF21210FDF76EFD54214DF21310FE
:10391000FDF769FD01214DF21410FDF764FD8221D0
:103920004DF21510FDF75FFD01214DF21610FDF768
:103930005AFDCA214DF21710FDF755FD02214DF237
:103940001810FDF750FD00214DF21910FDF74BFD49
:1039500002214DF21A10FDF746FD01214DF21B1018
:10396000FDF741FD02214DF21C10FDF73CFD342115
:103970004DF21D10FDF737FD02214DF21E10FDF72F
:1039800032FD67214DF21F10FDF72DFD02214DF292
:103990002010FDF728FD84214DF22110FDF723FDB5
:1039A00002214DF22210FDF71EFDA4214DF223103D
:1039B000FDF719FD02214DF22410FDF714FDB7218A
:1039C0004DF22510FDF70FFD02214DF22610FDF7F7
:1039D0000AFDCF214DF22710FDF705FD02214DF222
:1039E0002810FDF700FDDE214DF22910FDF7FBFC4C
:1039F00002214DF22A10FDF7F6FCF2214DF22B10B8
:103A0000FDF7F1FC02214DF22C10FDF7ECFCFE213C
:103A10004DF22D10FDF7E7FC03214DF22E10FDF7BE
:103A2000E2FC10214DF22F10FDF7DDFC03214DF2D9
:103A30003010FDF7D8FC33214DF23110FDF7D3FCE7
:103A400003214DF23210FDF7CEFC6D214DF2331003
:103A5000FDF7C9FC00214FF45240FDF7C4FC3321AF
:103A60004DF20120FDF7BFFC00214DF20220FDF7D1
:103A7000BAFC01E04800002034214DF20320FDF79C
:103A8000B2FC00214DF20420FDF7ADFC3A214DF2CD
:103A90000520FDF7A8FC00214DF20620FDF7A3FC50
:103AA0004A214DF20720FDF79EFC00214DF208202F
:103AB000FDF799FC5C214DF20920FDF794FC0021F3
:103AC0004DF20A20FDF78FFC81214DF20B20FDF70E
:103AD0008AFC00214DF20C20FDF785FCA6214DF259
:103AE0000D20FDF780FC00214DF20E20FDF77BFC40
:103AF000E5214DF20F20FDF776FC01214DF210205B
:103B0000FDF771FC13214DF21120FDF76CFC012132
:103B10004DF21220FDF767FC54214DF21320FDF702
:103B200062FC01214DF21420FDF75DFC82214DF273
:103B30001520FDF758FC01214DF21620FDF753FC2E
:103B4000CA214DF21720FDF74EFC02214DF218203C
:103B5000FDF749FC00214DF21920FDF744FC02213C
:103B60004DF21A20FDF73FFC01214DF21B20FDF71D
:103B70003AFC02214DF21C20FDF735FC34214DF2B8
:103B80001D20FDF730FC02214DF21E20FDF72BFC1D
:103B900067214DF21F20FDF726FC02214DF2202067
:103BA000FDF721FC84214DF22120FDF71CFC0221B0
:103BB0004DF22220FDF717FCA4214DF22320FDF742
:103BC00012FC02214DF22420FDF70DFCB7214DF22D
:103BD0002520FDF708FC02214DF22620FDF703FC0D
:103BE000CF214DF22720FDF7FEFB02214DF22820C8
:103BF000FDF7F9FBDE214DF22920FDF7F4FB022150
:103C00004DF22A20FDF7EFFBF2214DF22B20FDF7BC
:103C1000EAFB02214DF22C20FDF7E5FBFE214DF2DF
:103C20002D20FDF7E0FB03214DF22E20FDF7DBFBFD
:103C300010214DF22F20FDF7D6FB03214DF230204D
:103C4000FDF7D1FB33214DF23120FDF7CCFB0321F1
:103C50004DF23220FDF7C7FB6D214DF23320FDF709
:103C6000C2FB00214FF45340FDF7BDFB33214DF261
:103C70000130FDF7B8FB00214DF20230FDF7B3FB38
:103C800034214DF20330FDF7AEFB00214DF204303C
:103C9000FDF7A9FB3A214DF20530FDF7A4FB002109
:103CA0004DF20630FDF79FFB4A214DF20730FDF73C
:103CB0009AFB00214DF20830FDF795FB5C214DF297
:103CC0000930FDF790FB00214DF20A30FDF78BFB28
:103CD00081214DF20B30FDF786FB00214DF20C30B7
:103CE000FDF781FBA6214DF20D30FDF77CFB002195
:103CF0004DF20E30FDF777FBE5214DF20F30FDF769
:103D000072FB01214DF21030FDF76DFB13214DF2D6
:103D10001130FDF768FB01214DF21230FDF763FB16
:103D200054214DF21330FDF75EFB01214DF21430AA
:103D3000FDF759FB82214DF21530FDF754FB0121AF
:103D40004DF21630FDF74FFBCA214DF21730FDF74B
:103D50004AFB02214DF21830FDF745FB00214DF2E0
:103D60001930FDF740FB02214DF21A30FDF73BFB05
:103D700001214DF21B30FDF736FB02214DF21C30C4
:103D8000FDF731FB34214DF21D30FDF72CFB0221F4
:103D90004DF21E30FDF727FB67214DF21F30FDF776
:103DA00022FB02214DF22030FDF71DFB84214DF254
:103DB0002130FDF718FB02214DF22230FDF713FBF5
:103DC000A4214DF22330FDF70EFB02214DF22430E9
:103DD000FDF709FBB7214DF22530FDF704FB022169
:103DE0004DF22630FDF7FFFACF214DF22730FDF7D7
:103DF000FAFA02214DF22830FDF7F5FADE214DF2F4
:103E00002930FDF7F0FA02214DF22A30FDF7EBFAE6
:103E1000F2214DF22B30FDF7E6FA02214DF22C3063
:103E2000FDF7E1FAFE214DF22D30FDF7DCFA03211A
:103E30004DF22E30FDF7D7FA10214DF22F30FDF75D
:103E4000D2FA03214DF23030FDF7CDFA33214DF295
:103E50003130FDF7C8FA03214DF23230FDF7C3FAD5
:103E60006D214DF23330FDF7BEFA00214FF454407E
:103E7000FDF7B9FA33214DF20140FDF7B4FA002104
:103E80004DF20240FDF7AFFA34214DF20340FDF749
:103E9000AAFA00214DF20440FDF7A5FA3A214DF2AD
:103EA0000540FDF7A0FA00214DF20640FDF79BFA10
:103EB0004A214DF20740FDF796FA00214DF20840E5
:103EC000FDF791FA5C214DF20940FDF78CFA0021D3
:103ED0004DF20A40FDF787FA81214DF20B40FDF7C4
:103EE00082FA00214DF20C40FDF77DFAA6214DF239
:103EF0000D40FDF778FA00214DF20E40FDF773FA00
:103F0000E5214DF20F40FDF76EFA01214DF2104010
:103F1000FDF769FA13214DF21140FDF764FA012112
:103F20004DF21240FDF75FFA54214DF21340FDF7B8
:103F30005AFA01214DF21440FDF755FA82214DF253
:103F40001540FDF750FA01214DF21640FDF74BFAEE
:103F5000CA214DF21740FDF746FA02214DF21840F2
:103F6000FDF741FA00214DF21940FDF73CFA02211C
:103F70004DF21A40FDF737FA01214DF21B40FDF7D3
:103F800032FA00E004E302214DF21C40FDF72BFA67
:103F900034214DF21D40FDF726FA02214DF21E405C
:103FA000FDF721FA67214DF21F40FDF71CFA0221AF
:103FB0004DF22040FDF717FA84214DF22140FDF724
:103FC00012FA02214DF22240FDF70DFAA4214DF222
:103FD0002340FDF708FA02214DF22440FDF703FAD1
:103FE000B7214DF22540FDF7FEF902214DF22640A2
:103FF000FDF7F9F9CF214DF22740FDF7F4F9022141
:104000004DF22840FDF7EFF9DE214DF22940FDF792
:10401000EAF902214DF22A40FDF7E5F9F2214DF2CD
:104020002B40FDF7E0F902214DF22C40FDF7DBF9C2
:10403000FE214DF22D40FDF7D6F903214DF22E4021
:10404000FDF7D1F910214DF22F40FDF7CCF90321F6
:104050004DF23040FDF7C7F933214DF23140FDF705
:10406000C2F903214DF23240FDF7BDF96D214DF249
:104070003340FDF7B8F900214FF45540FDF7B3F98F
:1040800033214DF20150FDF7AEF900214DF20250FF
:10409000FDF7A9F934214DF20350FDF7A4F90021F1
:1040A0004DF20450FDF79FF93A214DF20550FDF70E
:1040B0009AF900214DF20650FDF795F94A214DF28B
:1040C0000750FDF790F900214DF20850FDF78BF9EC
:1040D0005C214DF20950FDF786F900214DF20A509E
:1040E000FDF781F981214DF20B50FDF77CF900219C
:1040F0004DF20C50FDF777F9A6214DF20D50FDF76A
:1041000072F900214DF20E50FDF76DF9E5214DF2E7
:104110000F50FDF768F901214DF21050FDF763F9DA
:1041200013214DF21150FDF75EF901214DF21250AD
:10413000FDF759F954214DF21350FDF754F90121BF
:104140004DF21450FDF74FF982214DF21550FDF755
:104150004AF901214DF21650FDF745F9CA214DF2F9
:104160001750FDF740F902214DF21850FDF73BF9C9
:1041700000214DF21950FDF736F902214DF21A5087
:10418000FDF731F901214DF21B50FDF72CF9022109
:104190004DF21C50FDF727F934214DF21D50FDF76B
:1041A00022F902214DF21E50FDF71DF967214DF253
:1041B0001F50FDF718F902214DF22050FDF713F9B9
:1041C00084214DF22150FDF70EF902214DF22250CB
:1041D000FDF709F9A4214DF22350FDF704F902215E
:1041E0004DF22450FDF7FFF8B7214DF22550FDF7B1
:1041F000FAF802214DF22650FDF7F5F8CF214DF2E5
:104200002750FDF7F0F802214DF22850FDF7EBF8AA
:10421000DE214DF22950FDF7E6F802214DF22A5039
:10422000FDF7E1F8F2214DF22B50FDF7DCF8022109
:104230004DF22C50FDF7D7F8FE214DF22D50FDF731
:10424000D2F803214DF22E50FDF7CDF810214DF29A
:104250002F50FDF7C8F803214DF23050FDF7C3F899
:1042600033214DF23150FDF7BEF803214DF23250AB
:10427000FDF7B9F86D214DF23350FDF7B4F8002188
:104280004FF45640FDF7AFF833214DF20160FDF7D2
:10429000AAF800214DF20260FDF7A5F834214DF295
:1042A0000360FDF7A0F800214DF20460FDF79BF8D4
:1042B0003A214DF20560FDF796F800214DF20660B7
:1042C000FDF791F84A214DF20760FDF78CF80021C7
:1042D0004DF20860FDF787F85C214DF20960FDF7AB
:1042E00082F800214DF20A60FDF77DF881214DF240
:1042F0000B60FDF778F800214DF20C60FDF773F8C4
:10430000A6214DF20D60FDF76EF800214DF20E6012
:10431000FDF769F8E5214DF20F60FDF764F8012122
:104320004DF21060FDF75FF813214DF21160FDF7BB
:104330005AF801214DF21260FDF755F854214DF263
:104340001360FDF750F801214DF21460FDF74BF8B2
:1043500082214DF21560FDF746F801214DF21660FD
:10436000FDF741F8CA214DF21760FDF73CF8022134
:104370004DF21860FDF737F800214DF21960FDF796
:1043800032F802214DF21A60FDF72DF801214DF2AD
:104390001B60FDF728F802214DF21C60FDF723F8A1
:1043A00034214DF21D60FDF71EF802214DF21E6012
:1043B000FDF719F867214DF21F60FDF714F802218F
:1043C0004DF22060FDF70FF884214DF22160FDF7DA
:1043D0000AF802214DF22260FDF705F8A4214DF202
:1043E0002360FDF700F802214DF22460FCF7FBFF8B
:1043F000B7214DF22560FCF7F6FF02214DF2266051
:10440000FCF7F1FFCF214DF22760FCF7ECFF022112
:104410004DF22860FCF7E7FFDE214DF22960FCF742
:10442000E2FF02214DF22A60FCF7DDFFF2214DF29E
:104430002B60FCF7D8FF02214DF22C60FCF7D3FF74
:10444000FE214DF22D60FCF7CEFF03214DF22E60D0
:10445000FCF7C9FF10214DF22F60FCF7C4FF0321C8
:104460004DF23060FCF7BFFF33214DF23160FCF7B5
:10447000BAFF03214DF23260FCF7B5FF6D214DF21A
:104480003360FCF7B0FF55214FF47040FCF7ABFFF1
:10449000AA214FF20100FCF7A6FF52214FF20200C1
:1044A000FCF7A1FF08214FF20300FCF79CFF00215D
:1044B0004FF20400FCF797FFCC214FF43140FCF79A
:1044C00092FF00214BF20110FCF78DFF05214FF404
:1044D0003640FCF788FF70214FF43740FCF783FF2C
:1044E00070214BF20170FCF77EFF01214FF4384040
:1044F000FCF779FF03214BF60100FCF774FF032161
:104500004BF60200FCF76FFF03214BF60300FCF7AC
:104510006AFF02214FF43C40FCF765FF00214BF697
:104520000140FCF760FF00214BF60240FCF75BFF07
:10453000D0214FF44940FCF756FF02214CF6011000
:10454000FCF751FF50214CF60210FCF74CFF5021B4
:104550004CF60310FCF747FF50214CF60410FCF713
:1045600042FF00214FF45450FCF73DFF55214FF41A
:104570006850FCF738FF4FF48850FCF725FF78208F
:1045800001F057FC4FF42450FCF71EFF01F05EB918
:10459000FE48808849F2253188427DD147F6F001F6
:1045A000E520FCF720FF4FF480710120FCF71BFF92
:1045B0004FF4E0610220FCF716FF41F230010320C6
:1045C000FCF711FF00210420FCF70DFF40F202214F
:1045D0000820FCF708FF00210920FCF704FF002158
:1045E0000A20FCF700FF00210C20FCF7FCFE002154
:1045F0000D20FCF7F8FE00210F20FCF7F4FE00214F
:104600001020FCF7F0FE07211120FCF7ECFE002142
:104610001220FCF7E8FE00211320FCF7E4FE002145
:104620000720FCF7E0FE41F290611020FCF7DBFE72
:1046300040F227211120FCF7D6FE9D211220FCF725
:10464000D2FE4FF4C8511320FCF7CDFE25212920BE
:10465000FCF7C9FE0D212B20FCF7C5FE07213020F9
:10466000FCF7C1FE40F203313120FCF7BCFE032110
:104670003220FCF7B8FE40F206213520FCF7B3FEED
:1046800008213620FCF7AFFE40F206413720FCF748
:10469000AAFE4FF4417100E058E03820FCF7A3FE79
:1046A00007213920FCF79FFE40F202613C20FCF715
:1046B0009AFE08213D20FCF796FE00215020FCF7D1
:1046C00092FEEF215120FCF78EFE00215220FCF7D4
:1046D0008AFE40F23F115320FCF785FE4FF427413C
:1046E0006020FCF780FE01216120FCF77CFE0021A8
:1046F0006A20FCF778FE00218020FCF774FE002180
:104700008120FCF770FE00218220FCF76CFE002166
:104710008320FCF768FE00218420FCF764FE002162
:104720008520FCF760FE10219020FCF75CFE4FF422
:10473000C0619220FCF757FE40F233110720FCF7CE
:1047400052FE22210020FCF74EFE1FE78F48808892
:1047500049F2283188427DD141F28F01EC20FCF7EB
:1047600042FE41F23421EF20FCF73DFE4FF4807110
:104770000120FCF738FE4FF4E0610220FCF733FE25
:1047800041F230010320FCF72EFE00210420FCF74B
:104790002AFE40F202210820FCF725FE0021092014
:1047A000FCF721FE00210A20FCF71DFE01210C2050
:1047B000FCF719FE00210D20FCF715FE00210F204B
:1047C000FCF711FE00211020FCF70DFE072111203F
:1047D000FCF709FE00211220FCF705FE0021132042
:1047E000FCF701FE01210720FCF7FDFD322001F05E
:1047F00044FB41F290411020FCF7F5FD40F22721E7
:104800001120FCF7F0FD322001F037FB8A21122045
:10481000FCF7E9FD322001F030FB4FF4D0511320BA
:10482000FCF7E1FD06212920FCF7DDFD0D212B2001
:10483000FCF7D9FD322001F020FB00212020FCF7FD
:10484000D2FD00212120FCF7CEFD322001F015FB26
:10485000002100E075E03020FCF7C5FD40F2046166
:104860003120FCF7C0FD40F205313220FCF7BBFDE2
:1048700000213520FCF7B7FD40F609413620FCF752
:10488000B2FD4FF401713720FCF7ADFD40F201316C
:104890003820FCF7A8FD40F207713920FCF7A3FD92
:1048A00000213C20FCF79FFD40F60A213D20FCF74B
:1048B0009AFD322001F0E1FA00215020FCF793FD2F
:1048C000EF215120FCF78FFD00215220FCF78BFDDA
:1048D00040F23F115320FCF786FD4FF42741602042
:1048E000FCF781FD01216120FCF77DFD00216A209C
:1048F000FCF779FD00218020FCF775FD0021812067
:10490000FCF771FD00218220FCF76DFD0021832062
:10491000FCF769FD00218420FCF765FD002185205E
:10492000FCF761FD10219020FCF75DFD4FF4C061A4
:104930009220FCF758FD40F233110720FCF753FD9D
:1049400024E61248808849F2203188427ED1002135
:104950000846FCF748FD4FF480710120FCF743FD49
:104960004FF4E0610220FCF73EFD41F230010320EC
:10497000FCF739FD00210420FCF735FD40F202214F
:104980000820FCF730FD0021092001E0480000204C
:10499000FCF729FD00210A20FCF725FD01210C2050
:1049A000FCF721FD00210D20FCF71DFD00210F204B
:1049B000FCF719FD322001F060FA40F201110720E6
:1049C000FCF711FD322001F058FA4FF48651102007
:1049D000FCF709FD07211120FCF705FD4FF4887154
:1049E0001220FCF700FD4FF430611320FCF7FBFCB4
:1049F00000212920FCF7F7FC44F210012B20FCF7E2
:104A0000F2FC00215020FCF7EEFCEF215120FCF7D6
:104A1000EAFC00215220FCF7E6FC40F23F11532053
:104A2000FCF7E1FC4FF41C516020FCF7DCFC012199
:104A30006120FCF7D8FC00216A20FCF7D4FC00219F
:104A40008020FCF7D0FC0021812000E030E0FCF762
:104A5000CAFC00218220FCF7C6FC00218320FCF761
:104A6000C2FC00218420FCF7BEFC00218520FCF75D
:104A7000BAFC10219020FCF7B6FC00219220FCF734
:104A8000B2FC01219320FCF7AEFC4FF48871952015
:104A9000FCF7A9FC00219720FCF7A5FC0021982039
:104AA000FCF7A1FC40F273110720FCF79CFC6DE5BC
:104AB000FE48808849F2313188427DD141F21401AB
:104AC000E720FCF790FC4FF480710120FCF78BFC91
:104AD0004FF400710220FCF786FC41F238010320FC
:104AE000FCF781FC40F202210820FCF77CFC00214D
:104AF0000920FCF778FC00210A20FCF774FC002157
:104B00000C20FCF770FC00210D20FCF76CFC002150
:104B10000F20FCF768FC00211020FCF764FC072143
:104B20001120FCF760FC00211220FCF75CFC002146
:104B30001320FCF758FCC82001F09FF941F2906166
:104B40001020FCF750FC40F227211120FCF74BFC11
:104B5000322001F092F90C211220FCF744FC3220A3
:104B600001F08BF94FF400611320FCF73CFC11219C
:104B70002920FCF738FC0B212B20FCF734FC3220D9
:104B800001F07BF900212020FCF72DFC40F23F11C1
:104B90002120FCF728FC00213020FCF724FC4FF4F6
:104BA00083713120FCF71FFC00213220FCF71BFC35
:104BB0004FF40171352000E064E0FCF714FC41F291
:104BC0000A613620FCF70FFC40F207713720FCF732
:104BD0000AFC4FF483713820FCF705FC40F20771A2
:104BE0003920FCF700FC40F202413C20FCF7FBFBC3
:104BF00040F60F413D20FCF7F6FB00215020FCF76A
:104C0000F2FBEF215120FCF7EEFB00215220FCF7D4
:104C1000EAFB40F23F115320FCF7E5FB4FF41C5137
:104C20006020FCF7E0FB01216120FCF7DCFB0021A8
:104C30006A20FCF7D8FB00218020FCF7D4FB002180
:104C40008120FCF7D0FB00218220FCF7CCFB002167
:104C50008320FCF7C8FB00218420FCF7C4FB002163
:104C60008520FCF7C0FB10219020FCF7BCFB4FF423
:104C7000C0619220FCF7B7FB40F233110720FCF72C
:104C8000B2FB83E48948808845F2084188427DD19F
:104C90004FF480710120FCF7A6FB4FF4E061022085
:104CA000FCF7A1FB41F230010320FCF79CFB002143
:104CB0000420FCF798FB40F207210820FCF793FB47
:104CC00000210920FCF78FFB00210A20FCF78BFB59
:104CD00000210C20FCF787FB00210D20FCF783FB53
:104CE00000210F20FCF77FFB142001F0C6F841F2F1
:104CF000B0611020FCF777FB01211120FCF773FB5A
:104D000001211720FCF76FFB4FF49C711220FCF778
:104D10006AFB4FF400611320FCF765FB0921292091
:104D2000FCF761FB09212A20FCF75DFB0021A42090
:104D3000FCF759FB00215020FCF755FBEF215120D7
:104D4000FCF751FB00215220FCF74DFB40F23F11D4
:104D50005320FCF748FB4FF41C516020FCF743FB49
:104D600001216120FCF73FFB00216A20FCF73BFB9F
:104D700000218020FCF737FB00218120FCF733FB6A
:104D800000218220FCF72FFB002100E024E083209B
:104D9000FCF729FB00218420FCF725FB002185205E
:104DA000FCF721FB13219020FCF71DFB0021922032
:104DB000FCF719FB03219320FCF715FB4FF48871D6
:104DC0009520FCF710FB40F273110720FCF70BFB5A
:104DD000322001F052F8B8E43448808841F205519D
:104DE00088427DD100210720FCF7FDFA322001F036
:104DF00044F84FF48E711220FCF7F5FA0121A4203B
:104E0000FCF7F1FA0F210820FCF7EDFA08210A203F
:104E1000FCF7E9FA08210D20FCF7E5FA40F20771EA
:104E20003020FCF7E0FA07213120FCF7DCFA40F2F1
:104E300003613220FCF7D7FA4FF4E0613320FCF72E
:104E4000D2FA40F202213420FCF7CDFA02213520BB
:104E5000FCF7C9FA41F60F713620FCF7C4FA40F2AC
:104E600007713720FCF7BFFA00213820FCF7BBFAA6
:104E700000213920FCF7B7FA40F207713A20FCF71D
:104E8000B2FA00213B20FCF7AEFA07213C20FCF7E8
:104E9000AAFA00213D20FCF7A6FA322000F0EDFF2F
:104EA00001210720FCF79FFA012101E048000020C2
:104EB0001720FCF798FA322000F0DFFF4FF4BD51C5
:104EC0001020FCF790FA40F217211120FCF78BFA22
:104ED0004FF48F711220FCF786FA4FF4706100E0F6
:104EE00098E01320FCF77FFA00212A20FCF77BFAD8
:104EF0000A212920FCF777FA4FF49F711220FCF762
:104F000072FA00215020FCF76EFAEF215120FCF7D5
:104F10006AFA00215220FCF766FA40F23F11532052
:104F2000FCF761FA4FF41C516020FCF75CFA012198
:104F30006120FCF758FA00216A20FCF754FA00219E
:104F40008020FCF750FA00218120FCF74CFA002168
:104F50008220FCF748FA00218320FCF744FA002164
:104F60008420FCF740FA00218520FCF73CFA13214D
:104F70009020FCF738FA4FF440719220FCF733FA96
:104F800005219320FCF72FFA00219520FCF72BFA3E
:104F900000219720FCF727FA00219820FCF723FA3C
:104FA0004FF480710120FCF71EFA4FF4E0610220FB
:104FB000FCF719FA41F238010320FCF714FA00213A
:104FC0000420FCF710FA00210C20FCF70CFA002159
:104FD0000F20FCF708FA00212020FCF704FA00213A
:104FE0002120FCF700FA21210720FCF7FCF914200E
:104FF00000F043FF61210720FCF7F5F9142000F0D1
:105000003CFF40F273110720FCF7EDF9142000F08B
:1050100034FF95E4FE4880884BF2055188427CD1EC
:1050200000210846FCF7DFF900210846FCF7DBF910
:1050300000210846FCF7D7F900210846FCF7D3F910
:105040000121A420FCF7CFF9142000F016FF4FF443
:105050001C516020FCF7C7F940F202210820FCF740
:10506000C2F94FF405713020FCF7BDF943F2157118
:105070003120FCF7B8F940F204613220FCF7B3F9B3
:1050800040F616613320FCF7AEF942F211213420CC
:10509000FCF7A9F94FF4A8513520FCF7A4F948F220
:1050A00007513620FCF79FF941F207413720FCF702
:1050B0009AF941F203413820FCF795F92021392073
:1050C000FCF791F91A219020FCF78DF900211020AE
:1050D000FCF789F907211120FCF785F9002112203E
:1050E000FCF781F900211320FCF77DF9142000F072
:1050F000C4FE4FF4E6611020FCF775F940F2371159
:105100001120FCF770F9142000F0B7FE4FF4DC71A9
:105110001220FCF768F9142000E085E000F0ADFEF5
:105120004FF470611320FCF75EF980212A20FCF710
:105130005AF948212920FCF756F9142000F09DFE69
:105140004FF480710120FCF74EF94FF4E06102202A
:10515000FCF749F941F238010320FCF744F940F229
:1051600002210820FCF73FF900210A20FCF73BF957
:1051700000210C20FCF737F900210D20FCF733F952
:1051800030210E20FCF72FF900215020FCF72BF9DD
:10519000EF215120FCF727F900215220FCF723F9D9
:1051A00040F23F115320FCF71EF94FF41C516020D0
:1051B000FCF719F901216120FCF715F900216A209B
:1051C000FCF711F911219020FCF70DF94FF4C061A3
:1051D0009220FCF708F940F202419320FCF703F912
:1051E00002219420FCF7FFF8142000F046FE012174
:1051F0000720FCF7F8F8142000F03FFE612107209B
:10520000FCF7F1F840F273110720FCF7ECF80021ED
:105210002020FCF7E8F800212120FCF7E4F8222107
:105220000020FCF7E0F811E3794880884CF2055142
:1052300088427CD100210846FCF7D5F800210846B9
:10524000FCF7D1F8142000F018FE00210846FCF706
:10525000CAF800210846FCF7C6F800210846FCF70A
:10526000C2F800210846FCF7BEF80121A420FCF793
:10527000BAF8142000F001FE4FF41C516020FCF736
:10528000B2F840F606010820FCF7ADF840F20371D1
:105290003020FCF7A8F801213120FCF7A4F8042104
:1052A0003220FCF7A0F84FF481713320FCF79BF813
:1052B0004FF440713420FCF796F840F2031135208A
:1052C000FCF791F81F213620FCF78DF840F20371AE
:1052D0003720FCF788F801213820FCF784F80421F6
:1052E0003920FCF780F815219020FCF77CF84FF46A
:1052F00082611020FCF777F840F247211120FCF77B
:1053000072F84FF4DE711220FCF76DF84FF4606113
:105310001320FCF768F8782000F0AFFD4FF480719F
:105320000120FCF760F84FF40071022000E052E029
:10533000FCF759F841F230010320FCF754F808213A
:105340000A20FCF750F800210C20FCF74CF8202133
:105350000E20FCF748F800210F20FCF744F800214C
:105360002020FCF740F800212120FCF73CF83D21EB
:105370002A20FCF738F8142000F07FFD2D21292089
:10538000FCF731F800215020FCF72DF84DF2EF0129
:105390005120FCF728F800215220FCF724F840F2B5
:1053A0003F115320FCF71FF800216120FCF71BF888
:1053B00000216A20FCF717F84FF440719220FCF7A7
:1053C00012F805219320FCF70EF84FF480710720A6
:1053D000FCF709F83AE20E48808844F231518842DD
:1053E0007ED101210020FBF7FEFF0A2000F045FDE1
:1053F00041F228611020FBF7F6FF0E211220FBF787
:10540000F2FF40F639211320FBF7EDFF0A2001E0FF
:105410004800002000F031FD40211120FBF7E3FFA0
:1054200050211520FBF7DFFF0A2000F026FD1E218A
:105430001220FBF7D8FF0A2000F01FFD4FF4B151F6
:105440001020FBF7D0FF42F639211320FBF7CBFFEA
:105450000A2000F012FD4FF480710120FBF7C3FF1A
:105460004FF440710220FBF7BEFF41F238010320E8
:10547000FBF7B9FF40F202210820FBF7B4FF082137
:105480000A20FBF7B0FF00213020FBF7ACFF40F211
:1054900002413120FBF7A7FF4FF483713220FBF765
:1054A000A2FF40F203513320FBF79DFF4FF48271BE
:1054B0003420FBF798FF40F201313520FBF793FFD2
:1054C00040F207713620FBF78EFF40F2053137209E
:1054D000FBF789FF4FF402713820FBF784FF00E0EF
:1054E0003EE040F60B713920FBF77DFF02214120A1
:1054F000FBF779FF4FF41C516020FBF774FF01218B
:105500006120FBF770FF4FF404719020FBF76BFFF5
:105510004FF485719220FBF766FF04219320FBF77F
:1055200062FF4FF48071A020FBF75DFF012107208F
:10553000FBF759FF21210720FBF755FF2321072007
:10554000FBF751FF33210720FBF74DFF40F23311EA
:105550000720FBF748FF0021A020FBF744FF75E17F
:10556000F748808844F2355188427CD1302115209B
:10557000FBF739FF10219A20FBF735FF202111207E
:10558000FBF731FF43F228411020FBF72CFF0221EB
:105590001220FBF728FF41F238011320FBF723FF0D
:1055A000282000F06AFC12210846FBF71CFF282087
:1055B00000F063FC43F220411020FBF714FF43F29C
:1055C00038011320FBF70FFF462000F056FC0021A6
:1055D0003020FBF708FF40F202413120FBF703FFC8
:1055E00040F207313220FBF7FEFE4FF441713320C9
:1055F000FBF7F9FE04213420FBF7F5FE40F20141F0
:105600003520FBF7F0FE40F207713620FBF7EBFE8A
:1056100040F205313720FBF7E6FE4FF4C261382037
:10562000FBF7E1FE4FF4C2613920FBF7DCFE4FF4DB
:1056300080710120FBF7D7FE4FF440710220FBF789
:10564000D2FE41F230010320FBF7CDFE40F6080107
:105650000820FBF7C8FE08210A20FBF7C4FE4FF420
:105660001C51602000E033E0FBF7BDFE012161200A
:10567000FBF7B9FE4FF49F719020FBF7B4FE4FF497
:1056800080719220FBF7AFFE4FF480719320FBF7FF
:10569000AAFE4FF44051A020FBF7A5FE1021A32045
:1056A000FBF7A1FE01210720FBF79DFE212107202A
:1056B000FBF799FE23210720FBF795FE33210720F6
:1056C000FBF791FE40F233110720FBF78CFEBDE0A3
:1056D0009B48808841F663118842F8D1E220FBF7AD
:1056E00073FE1D20FBF773FE0220FBF770FE042003
:1056F000FBF76DFE642000F09CFBE020FBF764FEEE
:105700000120FBF764FE0A2000F0B7FBE020FBF766
:105710005BFE0320FBF75BFE0C2000F0AEFB0120DC
:10572000FBF752FE0A2000F0A8FBE620FBF74CFE38
:105730002F20FBF74CFEFF20FBF749FEFF20FBF775
:1057400046FEB020FBF740FE2020FBF740FE002085
:10575000FBF73DFE0320FBF73AFE40F21F30FBF75C
:1057600036FE0120FBF733FE40F2DF10FBF72FFE81
:105770000020FBF72CFEB420FBF726FE0420FBF7ED
:1057800026FE40F21F40FBF722FE0020FBF71FFE23
:105790002E20FBF71CFE0020FBF719FE0020FBF774
:1057A00016FE0020FBF713FE0020FBF710FEB620CC
:1057B000FBF70AFE0220FBF70AFE4FF40370FBF72B
:1057C00006FE0020FBF703FE1720FBF700FE152066
:1057D000FBF7FDFD0020FBF7FAFD0020FBF7F7FDCE
:1057E000F020FBF7F1FD0320FBF7F1FD2920FBF78B
:1057F000EBFDD020FBF7E8FD0020FBF7E8FDBE2025
:10580000FBF7E2FD0520FBF7E2FDFE20FBF7DFFDE5
:105810000120FBF7DCFD0020FBF7D9FD0020FBF7A2
:10582000D6FD0020FBF7D3FDB820FBF7CDFD03200C
:10583000FBF7CDFD0120FBF7CAFDBA20FBF7C4FD45
:105840000120FBF7C4FD6420FCF721FA0020FCF7DF
:1058500046FA01203B4908604FF6FF70FCF72BFC2D
:105860001FB000BD2DE9FC4F05460E461746984671
:10587000DDF82C90002001903148808846F6040124
:10588000884229D12E488079012825D1AB4635465A
:105890002B480088C01B401E86B247462848008817
:1058A000A0EB0B00401E1FFA80F8002024498871ED
:1058B0002A2048812B20888143463A463146284693
:1058C000CDF80090FFF7CEFF01201D4988712B20F5
:1058D00048812A2088811CE0781B401C80B20190FE
:1058E000344614E021462846FBF7AAFDFBF78BFD62
:1058F0004FF0000A06E01448A0F800900AF10100F9
:105900001FFA80FA01988245F5DB601C84B2444599
:10591000E8DDBDE8FC8F2DE9F84F07460D469046BF
:105920009946DDF828B0A8EB0700401C1FFA80FA62
:10593000A9EB0500401C80B2009000241BE0000091
:10594000480000208081214200000260281981B2B5
:105950003846FBF775FDFBF756FD002607E004FB14
:105960000A603BF81000F8490880701C86B2564562
:10597000F5DB601C84B200988442E7DBBDE8F88F59
:105980002DE9FF4F84B081468A46002003900290A3
:105990000698A0EB09050798A0EB0A06CDF804903D
:1059A000CDF800A0002D01DD012705E00DB900278D
:1059B00002E04FF0FF376D42002E02DD4FF001088C
:1059C00006E016B94FF0000802E04FF0FF387642CB
:1059D000B54201DD2C4600E034464FF0000B21E0DB
:1059E000009A91B2019A90B2FCF783F80398284488
:1059F00003900298304402900398A04205DD03987A
:105A0000001B03900198384401900298A04205DDE4
:105A10000298001B02900098404400900BF1010096
:105A20001FFA80FB601C8345DADD08B0BDE8F08F0B
:105A3000F0B504460D4616461F462B46324629460B
:105A40002046FFF79DFF3B46224629462046FFF7AA
:105A500097FF3B46324639462046FFF791FF3B46CB
:105A6000324629463046FFF78BFFF0BD2DE9F04363
:105A700006460F469046002445460320A0EB480901
:105A80003CE07A1B91B2321990B2FCF732F83A1B23
:105A900091B2721990B2FCF72CF83A1991B27219BE
:105AA00090B2FCF726F87A1991B2321990B2FCF74D
:105AB00020F87A1991B2321B90B2FCF71AF83A1911
:105AC00091B2721B90B2FCF714F87A1B91B2321BA0
:105AD00090B2FCF70EF83A1B91B2721B90B2FCF731
